{
	"data": {
		"bytecode": {
			"linkReferences": {},
			"object": "60c0604052600c60808190526b02432b63637903bb7b93632160a51b60a090815261002d9160019190610073565b5034801561003a57600080fd5b506040516106a93803806106a983398101604081905261005991610122565b805161006c906000906020840190610073565b505061022c565b82805461007f906101f1565b90600052602060002090601f0160209004810192826100a157600085556100e7565b82601f106100ba57805160ff19168380011785556100e7565b828001600101855582156100e7579182015b828111156100e75782518255916020019190600101906100cc565b506100f39291506100f7565b5090565b5b808211156100f357600081556001016100f8565b634e487b7160e01b600052604160045260246000fd5b6000602080838503121561013557600080fd5b82516001600160401b038082111561014c57600080fd5b818501915085601f83011261016057600080fd5b8151818111156101725761017261010c565b604051601f8201601f19908116603f0116810190838211818310171561019a5761019a61010c565b8160405282815288868487010111156101b257600080fd5b600093505b828410156101d457848401860151818501870152928501926101b7565b828411156101e55760008684830101525b98975050505050505050565b600181811c9082168061020557607f821691505b6020821081141561022657634e487b7160e01b600052602260045260246000fd5b50919050565b61046e8061023b6000396000f3fe608060405234801561001057600080fd5b506004361061004c5760003560e01c806306fdde0314610051578063653721471461006f578063c47f002714610077578063ef690cc01461008c575b600080fd5b610059610094565b604051610066919061020a565b60405180910390f35b610059610122565b61008a610085366004610275565b61014d565b005b610059610164565b600080546100a190610326565b80601f01602080910402602001604051908101604052809291908181526020018280546100cd90610326565b801561011a5780601f106100ef5761010080835404028352916020019161011a565b820191906000526020600020905b8154815290600101906020018083116100fd57829003601f168201915b505050505081565b6060600160006040516020016101399291906103fb565b604051602081830303815290604052905090565b8051610160906000906020840190610171565b5050565b600180546100a190610326565b82805461017d90610326565b90600052602060002090601f01602090048101928261019f57600085556101e5565b82601f106101b857805160ff19168380011785556101e5565b828001600101855582156101e5579182015b828111156101e55782518255916020019190600101906101ca565b506101f19291506101f5565b5090565b5b808211156101f157600081556001016101f6565b600060208083528351808285015260005b818110156102375785810183015185820160400152820161021b565b81811115610249576000604083870101525b50601f01601f1916929092016040019392505050565b634e487b7160e01b600052604160045260246000fd5b60006020828403121561028757600080fd5b813567ffffffffffffffff8082111561029f57600080fd5b818401915084601f8301126102b357600080fd5b8135818111156102c5576102c561025f565b604051601f8201601f19908116603f011681019083821181831017156102ed576102ed61025f565b8160405282815287602084870101111561030657600080fd5b826020860160208301376000928101602001929092525095945050505050565b600181811c9082168061033a57607f821691505b6020821081141561035b57634e487b7160e01b600052602260045260246000fd5b50919050565b8054600090600181811c908083168061037b57607f831692505b602080841082141561039d57634e487b7160e01b600052602260045260246000fd5b8180156103b157600181146103c2576103ef565b60ff198616895284890196506103ef565b60008881526020902060005b868110156103e75781548b8201529085019083016103ce565b505084890196505b50505050505092915050565b600061041061040a8386610361565b84610361565b94935050505056fea26469706673582212204cad023c95127284fe1b90c8378f61a8c8c35a291f672b917e49ccdd783d2ac764736f6c637822302e382e31332d63692e323032322e332e372b636f6d6d69742e31343531383666360053",
			"opcodes": "PUSH1 0xC0 PUSH1 0x40 MSTORE PUSH1 0xC PUSH1 0x80 DUP2 SWAP1 MSTORE PUSH12 0x2432B63637903BB7B936321 PUSH1 0xA5 SHL PUSH1 0xA0 SWAP1 DUP2 MSTORE PUSH2 0x2D SWAP2 PUSH1 0x1 SWAP2 SWAP1 PUSH2 0x73 JUMP JUMPDEST POP CALLVALUE DUP1 ISZERO PUSH2 0x3A JUMPI PUSH1 0x0 DUP1 REVERT JUMPDEST POP PUSH1 0x40 MLOAD PUSH2 0x6A9 CODESIZE SUB DUP1 PUSH2 0x6A9 DUP4 CODECOPY DUP2 ADD PUSH1 0x40 DUP2 SWAP1 MSTORE PUSH2 0x59 SWAP2 PUSH2 0x122 JUMP JUMPDEST DUP1 MLOAD PUSH2 0x6C SWAP1 PUSH1 0x0 SWAP1 PUSH1 0x20 DUP5 ADD SWAP1 PUSH2 0x73 JUMP JUMPDEST POP POP PUSH2 0x22C JUMP JUMPDEST DUP3 DUP1 SLOAD PUSH2 0x7F SWAP1 PUSH2 0x1F1 JUMP JUMPDEST SWAP1 PUSH1 0x0 MSTORE PUSH1 0x20 PUSH1 0x0 KECCAK256 SWAP1 PUSH1 0x1F ADD PUSH1 0x20 SWAP1 DIV DUP2 ADD SWAP3 DUP3 PUSH2 0xA1 JUMPI PUSH1 0x0 DUP6 SSTORE PUSH2 0xE7 JUMP JUMPDEST DUP3 PUSH1 0x1F LT PUSH2 0xBA JUMPI DUP1 MLOAD PUSH1 0xFF NOT AND DUP4 DUP1 ADD OR DUP6 SSTORE PUSH2 0xE7 JUMP JUMPDEST DUP3 DUP1 ADD PUSH1 0x1 ADD DUP6 SSTORE DUP3 ISZERO PUSH2 0xE7 JUMPI SWAP2 DUP3 ADD JUMPDEST DUP3 DUP2 GT ISZERO PUSH2 0xE7 JUMPI DUP3 MLOAD DUP3 SSTORE SWAP2 PUSH1 0x20 ADD SWAP2 SWAP1 PUSH1 0x1 ADD SWAP1 PUSH2 0xCC JUMP JUMPDEST POP PUSH2 0xF3 SWAP3 SWAP2 POP PUSH2 0xF7 JUMP JUMPDEST POP SWAP1 JUMP JUMPDEST JUMPDEST DUP1 DUP3 GT ISZERO PUSH2 0xF3 JUMPI PUSH1 0x0 DUP2 SSTORE PUSH1 0x1 ADD PUSH2 0xF8 JUMP JUMPDEST PUSH4 0x4E487B71 PUSH1 0xE0 SHL PUSH1 0x0 MSTORE PUSH1 0x41 PUSH1 0x4 MSTORE PUSH1 0x24 PUSH1 0x0 REVERT JUMPDEST PUSH1 0x0 PUSH1 0x20 DUP1 DUP4 DUP6 SUB SLT ISZERO PUSH2 0x135 JUMPI PUSH1 0x0 DUP1 REVERT JUMPDEST DUP3 MLOAD PUSH1 0x1 PUSH1 0x1 PUSH1 0x40 SHL SUB DUP1 DUP3 GT ISZERO PUSH2 0x14C JUMPI PUSH1 0x0 DUP1 REVERT JUMPDEST DUP2 DUP6 ADD SWAP2 POP DUP6 PUSH1 0x1F DUP4 ADD SLT PUSH2 0x160 JUMPI PUSH1 0x0 DUP1 REVERT JUMPDEST DUP2 MLOAD DUP2 DUP2 GT ISZERO PUSH2 0x172 JUMPI PUSH2 0x172 PUSH2 0x10C JUMP JUMPDEST PUSH1 0x40 MLOAD PUSH1 0x1F DUP3 ADD PUSH1 0x1F NOT SWAP1 DUP2 AND PUSH1 0x3F ADD AND DUP2 ADD SWAP1 DUP4 DUP3 GT DUP2 DUP4 LT OR ISZERO PUSH2 0x19A JUMPI PUSH2 0x19A PUSH2 0x10C JUMP JUMPDEST DUP2 PUSH1 0x40 MSTORE DUP3 DUP2 MSTORE DUP9 DUP7 DUP5 DUP8 ADD ADD GT ISZERO PUSH2 0x1B2 JUMPI PUSH1 0x0 DUP1 REVERT JUMPDEST PUSH1 0x0 SWAP4 POP JUMPDEST DUP3 DUP5 LT ISZERO PUSH2 0x1D4 JUMPI DUP5 DUP5 ADD DUP7 ADD MLOAD DUP2 DUP6 ADD DUP8 ADD MSTORE SWAP3 DUP6 ADD SWAP3 PUSH2 0x1B7 JUMP JUMPDEST DUP3 DUP5 GT ISZERO PUSH2 0x1E5 JUMPI PUSH1 0x0 DUP7 DUP5 DUP4 ADD ADD MSTORE JUMPDEST SWAP9 SWAP8 POP POP POP POP POP POP POP POP JUMP JUMPDEST PUSH1 0x1 DUP2 DUP2 SHR SWAP1 DUP3 AND DUP1 PUSH2 0x205 JUMPI PUSH1 0x7F DUP3 AND SWAP2 POP JUMPDEST PUSH1 0x20 DUP3 LT DUP2 EQ ISZERO PUSH2 0x226 JUMPI PUSH4 0x4E487B71 PUSH1 0xE0 SHL PUSH1 0x0 MSTORE PUSH1 0x22 PUSH1 0x4 MSTORE PUSH1 0x24 PUSH1 0x0 REVERT JUMPDEST POP SWAP2 SWAP1 POP JUMP JUMPDEST PUSH2 0x46E DUP1 PUSH2 0x23B PUSH1 0x0 CODECOPY PUSH1 0x0 RETURN INVALID PUSH1 0x80 PUSH1 0x40 MSTORE CALLVALUE DUP1 ISZERO PUSH2 0x10 JUMPI PUSH1 0x0 DUP1 REVERT JUMPDEST POP PUSH1 0x4 CALLDATASIZE LT PUSH2 0x4C JUMPI PUSH1 0x0 CALLDATALOAD PUSH1 0xE0 SHR DUP1 PUSH4 0x6FDDE03 EQ PUSH2 0x51 JUMPI DUP1 PUSH4 0x65372147 EQ PUSH2 0x6F JUMPI DUP1 PUSH4 0xC47F0027 EQ PUSH2 0x77 JUMPI DUP1 PUSH4 0xEF690CC0 EQ PUSH2 0x8C JUMPI JUMPDEST PUSH1 0x0 DUP1 REVERT JUMPDEST PUSH2 0x59 PUSH2 0x94 JUMP JUMPDEST PUSH1 0x40 MLOAD PUSH2 0x66 SWAP2 SWAP1 PUSH2 0x20A JUMP JUMPDEST PUSH1 0x40 MLOAD DUP1 SWAP2 SUB SWAP1 RETURN JUMPDEST PUSH2 0x59 PUSH2 0x122 JUMP JUMPDEST PUSH2 0x8A PUSH2 0x85 CALLDATASIZE PUSH1 0x4 PUSH2 0x275 JUMP JUMPDEST PUSH2 0x14D JUMP JUMPDEST STOP JUMPDEST PUSH2 0x59 PUSH2 0x164 JUMP JUMPDEST PUSH1 0x0 DUP1 SLOAD PUSH2 0xA1 SWAP1 PUSH2 0x326 JUMP JUMPDEST DUP1 PUSH1 0x1F ADD PUSH1 0x20 DUP1 SWAP2 DIV MUL PUSH1 0x20 ADD PUSH1 0x40 MLOAD SWAP1 DUP2 ADD PUSH1 0x40 MSTORE DUP1 SWAP3 SWAP2 SWAP1 DUP2 DUP2 MSTORE PUSH1 0x20 ADD DUP3 DUP1 SLOAD PUSH2 0xCD SWAP1 PUSH2 0x326 JUMP JUMPDEST DUP1 ISZERO PUSH2 0x11A JUMPI DUP1 PUSH1 0x1F LT PUSH2 0xEF JUMPI PUSH2 0x100 DUP1 DUP4 SLOAD DIV MUL DUP4 MSTORE SWAP2 PUSH1 0x20 ADD SWAP2 PUSH2 0x11A JUMP JUMPDEST DUP3 ADD SWAP2 SWAP1 PUSH1 0x0 MSTORE PUSH1 0x20 PUSH1 0x0 KECCAK256 SWAP1 JUMPDEST DUP2 SLOAD DUP2 MSTORE SWAP1 PUSH1 0x1 ADD SWAP1 PUSH1 0x20 ADD DUP1 DUP4 GT PUSH2 0xFD JUMPI DUP3 SWAP1 SUB PUSH1 0x1F AND DUP3 ADD SWAP2 JUMPDEST POP POP POP POP POP DUP2 JUMP JUMPDEST PUSH1 0x60 PUSH1 0x1 PUSH1 0x0 PUSH1 0x40 MLOAD PUSH1 0x20 ADD PUSH2 0x139 SWAP3 SWAP2 SWAP1 PUSH2 0x3FB JUMP JUMPDEST PUSH1 0x40 MLOAD PUSH1 0x20 DUP2 DUP4 SUB SUB DUP2 MSTORE SWAP1 PUSH1 0x40 MSTORE SWAP1 POP SWAP1 JUMP JUMPDEST DUP1 MLOAD PUSH2 0x160 SWAP1 PUSH1 0x0 SWAP1 PUSH1 0x20 DUP5 ADD SWAP1 PUSH2 0x171 JUMP JUMPDEST POP POP JUMP JUMPDEST PUSH1 0x1 DUP1 SLOAD PUSH2 0xA1 SWAP1 PUSH2 0x326 JUMP JUMPDEST DUP3 DUP1 SLOAD PUSH2 0x17D SWAP1 PUSH2 0x326 JUMP JUMPDEST SWAP1 PUSH1 0x0 MSTORE PUSH1 0x20 PUSH1 0x0 KECCAK256 SWAP1 PUSH1 0x1F ADD PUSH1 0x20 SWAP1 DIV DUP2 ADD SWAP3 DUP3 PUSH2 0x19F JUMPI PUSH1 0x0 DUP6 SSTORE PUSH2 0x1E5 JUMP JUMPDEST DUP3 PUSH1 0x1F LT PUSH2 0x1B8 JUMPI DUP1 MLOAD PUSH1 0xFF NOT AND DUP4 DUP1 ADD OR DUP6 SSTORE PUSH2 0x1E5 JUMP JUMPDEST DUP3 DUP1 ADD PUSH1 0x1 ADD DUP6 SSTORE DUP3 ISZERO PUSH2 0x1E5 JUMPI SWAP2 DUP3 ADD JUMPDEST DUP3 DUP2 GT ISZERO PUSH2 0x1E5 JUMPI DUP3 MLOAD DUP3 SSTORE SWAP2 PUSH1 0x20 ADD SWAP2 SWAP1 PUSH1 0x1 ADD SWAP1 PUSH2 0x1CA JUMP JUMPDEST POP PUSH2 0x1F1 SWAP3 SWAP2 POP PUSH2 0x1F5 JUMP JUMPDEST POP SWAP1 JUMP JUMPDEST JUMPDEST DUP1 DUP3 GT ISZERO PUSH2 0x1F1 JUMPI PUSH1 0x0 DUP2 SSTORE PUSH1 0x1 ADD PUSH2 0x1F6 JUMP JUMPDEST PUSH1 0x0 PUSH1 0x20 DUP1 DUP4 MSTORE DUP4 MLOAD DUP1 DUP3 DUP6 ADD MSTORE PUSH1 0x0 JUMPDEST DUP2 DUP2 LT ISZERO PUSH2 0x237 JUMPI DUP6 DUP2 ADD DUP4 ADD MLOAD DUP6 DUP3 ADD PUSH1 0x40 ADD MSTORE DUP3 ADD PUSH2 0x21B JUMP JUMPDEST DUP2 DUP2 GT ISZERO PUSH2 0x249 JUMPI PUSH1 0x0 PUSH1 0x40 DUP4 DUP8 ADD ADD MSTORE JUMPDEST POP PUSH1 0x1F ADD PUSH1 0x1F NOT AND SWAP3 SWAP1 SWAP3 ADD PUSH1 0x40 ADD SWAP4 SWAP3 POP POP POP JUMP JUMPDEST PUSH4 0x4E487B71 PUSH1 0xE0 SHL PUSH1 0x0 MSTORE PUSH1 0x41 PUSH1 0x4 MSTORE PUSH1 0x24 PUSH1 0x0 REVERT JUMPDEST PUSH1 0x0 PUSH1 0x20 DUP3 DUP5 SUB SLT ISZERO PUSH2 0x287 JUMPI PUSH1 0x0 DUP1 REVERT JUMPDEST DUP2 CALLDATALOAD PUSH8 0xFFFFFFFFFFFFFFFF DUP1 DUP3 GT ISZERO PUSH2 0x29F JUMPI PUSH1 0x0 DUP1 REVERT JUMPDEST DUP2 DUP5 ADD SWAP2 POP DUP5 PUSH1 0x1F DUP4 ADD SLT PUSH2 0x2B3 JUMPI PUSH1 0x0 DUP1 REVERT JUMPDEST DUP2 CALLDATALOAD DUP2 DUP2 GT ISZERO PUSH2 0x2C5 JUMPI PUSH2 0x2C5 PUSH2 0x25F JUMP JUMPDEST PUSH1 0x40 MLOAD PUSH1 0x1F DUP3 ADD PUSH1 0x1F NOT SWAP1 DUP2 AND PUSH1 0x3F ADD AND DUP2 ADD SWAP1 DUP4 DUP3 GT DUP2 DUP4 LT OR ISZERO PUSH2 0x2ED JUMPI PUSH2 0x2ED PUSH2 0x25F JUMP JUMPDEST DUP2 PUSH1 0x40 MSTORE DUP3 DUP2 MSTORE DUP8 PUSH1 0x20 DUP5 DUP8 ADD ADD GT ISZERO PUSH2 0x306 JUMPI PUSH1 0x0 DUP1 REVERT JUMPDEST DUP3 PUSH1 0x20 DUP7 ADD PUSH1 0x20 DUP4 ADD CALLDATACOPY PUSH1 0x0 SWAP3 DUP2 ADD PUSH1 0x20 ADD SWAP3 SWAP1 SWAP3 MSTORE POP SWAP6 SWAP5 POP POP POP POP POP JUMP JUMPDEST PUSH1 0x1 DUP2 DUP2 SHR SWAP1 DUP3 AND DUP1 PUSH2 0x33A JUMPI PUSH1 0x7F DUP3 AND SWAP2 POP JUMPDEST PUSH1 0x20 DUP3 LT DUP2 EQ ISZERO PUSH2 0x35B JUMPI PUSH4 0x4E487B71 PUSH1 0xE0 SHL PUSH1 0x0 MSTORE PUSH1 0x22 PUSH1 0x4 MSTORE PUSH1 0x24 PUSH1 0x0 REVERT JUMPDEST POP SWAP2 SWAP1 POP JUMP JUMPDEST DUP1 SLOAD PUSH1 0x0 SWAP1 PUSH1 0x1 DUP2 DUP2 SHR SWAP1 DUP1 DUP4 AND DUP1 PUSH2 0x37B JUMPI PUSH1 0x7F DUP4 AND SWAP3 POP JUMPDEST PUSH1 0x20 DUP1 DUP5 LT DUP3 EQ ISZERO PUSH2 0x39D JUMPI PUSH4 0x4E487B71 PUSH1 0xE0 SHL PUSH1 0x0 MSTORE PUSH1 0x22 PUSH1 0x4 MSTORE PUSH1 0x24 PUSH1 0x0 REVERT JUMPDEST DUP2 DUP1 ISZERO PUSH2 0x3B1 JUMPI PUSH1 0x1 DUP2 EQ PUSH2 0x3C2 JUMPI PUSH2 0x3EF JUMP JUMPDEST PUSH1 0xFF NOT DUP7 AND DUP10 MSTORE DUP5 DUP10 ADD SWAP7 POP PUSH2 0x3EF JUMP JUMPDEST PUSH1 0x0 DUP9 DUP2 MSTORE PUSH1 0x20 SWAP1 KECCAK256 PUSH1 0x0 JUMPDEST DUP7 DUP2 LT ISZERO PUSH2 0x3E7 JUMPI DUP2 SLOAD DUP12 DUP3 ADD MSTORE SWAP1 DUP6 ADD SWAP1 DUP4 ADD PUSH2 0x3CE JUMP JUMPDEST POP POP DUP5 DUP10 ADD SWAP7 POP JUMPDEST POP POP POP POP POP POP SWAP3 SWAP2 POP POP JUMP JUMPDEST PUSH1 0x0 PUSH2 0x410 PUSH2 0x40A DUP4 DUP7 PUSH2 0x361 JUMP JUMPDEST DUP5 PUSH2 0x361 JUMP JUMPDEST SWAP5 SWAP4 POP POP POP POP JUMP INVALID LOG2 PUSH5 0x6970667358 0x22 SLT KECCAK256 0x4C 0xAD MUL EXTCODECOPY SWAP6 SLT PUSH19 0x84FE1B90C8378F61A8C8C35A291F672B917E49 0xCC 0xDD PUSH25 0x3D2AC764736F6C637822302E382E31332D63692E323032322E CALLER 0x2E CALLDATACOPY 0x2B PUSH4 0x6F6D6D69 PUSH21 0x2E3134353138366636005300000000000000000000 "
		},
		"gasEstimates": {
			"creation": {
				"codeDepositCost": "226800",
				"executionCost": "infinite",
				"totalCost": "infinite"
			},
			"external": {
				"greeting()": "infinite",
				"name()": "infinite",
				"result()": "infinite",
				"setName(string)": "infinite"
			}
		},
		"methodIdentifiers": {
			"greeting()": "ef690cc0",
			"name()": "06fdde03",
			"result()": "65372147",
			"setName(string)": "c47f0027"
		}
	},
	"abi": [
		{
			"inputs": [
				{
					"internalType": "string",
					"name": "firstName",
					"type": "string"
				}
			],
			"stateMutability": "nonpayable",
			"type": "constructor"
		},
		{
			"inputs": [],
			"name": "greeting",
			"outputs": [
				{
					"internalType": "string",
					"name": "",
					"type": "string"
				}
			],
			"stateMutability": "view",
			"type": "function"
		},
		{
			"inputs": [],
			"name": "name",
			"outputs": [
				{
					"internalType": "string",
					"name": "",
					"type": "string"
				}
			],
			"stateMutability": "view",
			"type": "function"
		},
		{
			"inputs": [],
			"name": "result",
			"outputs": [
				{
					"internalType": "string",
					"name": "",
					"type": "string"
				}
			],
			"stateMutability": "view",
			"type": "function"
		},
		{
			"inputs": [
				{
					"internalType": "string",
					"name": "newName",
					"type": "string"
				}
			],
			"name": "setName",
			"outputs": [],
			"stateMutability": "nonpayable",
			"type": "function"
		}
	]
}